{
  "_format": "hh-sol-artifact-1",
  "contractName": "DeBay",
  "sourceName": "contracts/DeBay.sol",
  "abi": [
    {
      "inputs": [],
      "stateMutability": "nonpayable",
      "type": "constructor"
    },
    {
      "anonymous": false,
      "inputs": [
        {
          "indexed": true,
          "internalType": "address",
          "name": "account",
          "type": "address"
        },
        {
          "indexed": true,
          "internalType": "address",
          "name": "operator",
          "type": "address"
        },
        {
          "indexed": false,
          "internalType": "bool",
          "name": "approved",
          "type": "bool"
        }
      ],
      "name": "ApprovalForAll",
      "type": "event"
    },
    {
      "anonymous": false,
      "inputs": [
        {
          "indexed": true,
          "internalType": "address",
          "name": "previousOwner",
          "type": "address"
        },
        {
          "indexed": true,
          "internalType": "address",
          "name": "newOwner",
          "type": "address"
        }
      ],
      "name": "OwnershipTransferred",
      "type": "event"
    },
    {
      "anonymous": false,
      "inputs": [
        {
          "indexed": true,
          "internalType": "address",
          "name": "operator",
          "type": "address"
        },
        {
          "indexed": true,
          "internalType": "address",
          "name": "from",
          "type": "address"
        },
        {
          "indexed": true,
          "internalType": "address",
          "name": "to",
          "type": "address"
        },
        {
          "indexed": false,
          "internalType": "uint256[]",
          "name": "ids",
          "type": "uint256[]"
        },
        {
          "indexed": false,
          "internalType": "uint256[]",
          "name": "values",
          "type": "uint256[]"
        }
      ],
      "name": "TransferBatch",
      "type": "event"
    },
    {
      "anonymous": false,
      "inputs": [
        {
          "indexed": true,
          "internalType": "address",
          "name": "operator",
          "type": "address"
        },
        {
          "indexed": true,
          "internalType": "address",
          "name": "from",
          "type": "address"
        },
        {
          "indexed": true,
          "internalType": "address",
          "name": "to",
          "type": "address"
        },
        {
          "indexed": false,
          "internalType": "uint256",
          "name": "id",
          "type": "uint256"
        },
        {
          "indexed": false,
          "internalType": "uint256",
          "name": "value",
          "type": "uint256"
        }
      ],
      "name": "TransferSingle",
      "type": "event"
    },
    {
      "anonymous": false,
      "inputs": [
        {
          "indexed": false,
          "internalType": "string",
          "name": "value",
          "type": "string"
        },
        {
          "indexed": true,
          "internalType": "uint256",
          "name": "id",
          "type": "uint256"
        }
      ],
      "name": "URI",
      "type": "event"
    },
    {
      "inputs": [
        {
          "internalType": "address",
          "name": "account",
          "type": "address"
        },
        {
          "internalType": "uint256",
          "name": "id",
          "type": "uint256"
        }
      ],
      "name": "balanceOf",
      "outputs": [
        {
          "internalType": "uint256",
          "name": "",
          "type": "uint256"
        }
      ],
      "stateMutability": "view",
      "type": "function"
    },
    {
      "inputs": [
        {
          "internalType": "address[]",
          "name": "accounts",
          "type": "address[]"
        },
        {
          "internalType": "uint256[]",
          "name": "ids",
          "type": "uint256[]"
        }
      ],
      "name": "balanceOfBatch",
      "outputs": [
        {
          "internalType": "uint256[]",
          "name": "",
          "type": "uint256[]"
        }
      ],
      "stateMutability": "view",
      "type": "function"
    },
    {
      "inputs": [
        {
          "internalType": "address",
          "name": "account",
          "type": "address"
        },
        {
          "internalType": "uint256",
          "name": "id",
          "type": "uint256"
        },
        {
          "internalType": "uint256",
          "name": "value",
          "type": "uint256"
        }
      ],
      "name": "burn",
      "outputs": [],
      "stateMutability": "nonpayable",
      "type": "function"
    },
    {
      "inputs": [
        {
          "internalType": "address",
          "name": "account",
          "type": "address"
        },
        {
          "internalType": "uint256[]",
          "name": "ids",
          "type": "uint256[]"
        },
        {
          "internalType": "uint256[]",
          "name": "values",
          "type": "uint256[]"
        }
      ],
      "name": "burnBatch",
      "outputs": [],
      "stateMutability": "nonpayable",
      "type": "function"
    },
    {
      "inputs": [
        {
          "internalType": "address",
          "name": "account",
          "type": "address"
        },
        {
          "internalType": "address",
          "name": "operator",
          "type": "address"
        }
      ],
      "name": "isApprovedForAll",
      "outputs": [
        {
          "internalType": "bool",
          "name": "",
          "type": "bool"
        }
      ],
      "stateMutability": "view",
      "type": "function"
    },
    {
      "inputs": [
        {
          "internalType": "address",
          "name": "",
          "type": "address"
        }
      ],
      "name": "lastMinted",
      "outputs": [
        {
          "internalType": "uint256",
          "name": "",
          "type": "uint256"
        }
      ],
      "stateMutability": "view",
      "type": "function"
    },
    {
      "inputs": [
        {
          "internalType": "uint256",
          "name": "id",
          "type": "uint256"
        },
        {
          "internalType": "uint256",
          "name": "amount",
          "type": "uint256"
        },
        {
          "internalType": "bytes",
          "name": "data",
          "type": "bytes"
        }
      ],
      "name": "mint",
      "outputs": [],
      "stateMutability": "nonpayable",
      "type": "function"
    },
    {
      "inputs": [],
      "name": "name",
      "outputs": [
        {
          "internalType": "string",
          "name": "",
          "type": "string"
        }
      ],
      "stateMutability": "view",
      "type": "function"
    },
    {
      "inputs": [],
      "name": "owner",
      "outputs": [
        {
          "internalType": "address",
          "name": "",
          "type": "address"
        }
      ],
      "stateMutability": "view",
      "type": "function"
    },
    {
      "inputs": [],
      "name": "renounceOwnership",
      "outputs": [],
      "stateMutability": "nonpayable",
      "type": "function"
    },
    {
      "inputs": [
        {
          "internalType": "address",
          "name": "",
          "type": "address"
        },
        {
          "internalType": "address",
          "name": "",
          "type": "address"
        },
        {
          "internalType": "uint256[]",
          "name": "",
          "type": "uint256[]"
        },
        {
          "internalType": "uint256[]",
          "name": "",
          "type": "uint256[]"
        },
        {
          "internalType": "bytes",
          "name": "",
          "type": "bytes"
        }
      ],
      "name": "safeBatchTransferFrom",
      "outputs": [],
      "stateMutability": "pure",
      "type": "function"
    },
    {
      "inputs": [
        {
          "internalType": "address",
          "name": "",
          "type": "address"
        },
        {
          "internalType": "address",
          "name": "",
          "type": "address"
        },
        {
          "internalType": "uint256",
          "name": "",
          "type": "uint256"
        },
        {
          "internalType": "uint256",
          "name": "",
          "type": "uint256"
        },
        {
          "internalType": "bytes",
          "name": "",
          "type": "bytes"
        }
      ],
      "name": "safeTransferFrom",
      "outputs": [],
      "stateMutability": "pure",
      "type": "function"
    },
    {
      "inputs": [
        {
          "internalType": "address",
          "name": "operator",
          "type": "address"
        },
        {
          "internalType": "bool",
          "name": "approved",
          "type": "bool"
        }
      ],
      "name": "setApprovalForAll",
      "outputs": [],
      "stateMutability": "nonpayable",
      "type": "function"
    },
    {
      "inputs": [
        {
          "internalType": "string",
          "name": "_name",
          "type": "string"
        }
      ],
      "name": "setName",
      "outputs": [],
      "stateMutability": "nonpayable",
      "type": "function"
    },
    {
      "inputs": [
        {
          "internalType": "string",
          "name": "newuri",
          "type": "string"
        }
      ],
      "name": "setURI",
      "outputs": [],
      "stateMutability": "nonpayable",
      "type": "function"
    },
    {
      "inputs": [
        {
          "internalType": "bytes4",
          "name": "interfaceId",
          "type": "bytes4"
        }
      ],
      "name": "supportsInterface",
      "outputs": [
        {
          "internalType": "bool",
          "name": "",
          "type": "bool"
        }
      ],
      "stateMutability": "view",
      "type": "function"
    },
    {
      "inputs": [
        {
          "internalType": "address",
          "name": "newOwner",
          "type": "address"
        }
      ],
      "name": "transferOwnership",
      "outputs": [],
      "stateMutability": "nonpayable",
      "type": "function"
    },
    {
      "inputs": [
        {
          "internalType": "uint256",
          "name": "_tokenid",
          "type": "uint256"
        }
      ],
      "name": "uri",
      "outputs": [
        {
          "internalType": "string",
          "name": "",
          "type": "string"
        }
      ],
      "stateMutability": "pure",
      "type": "function"
    }
  ],
  "bytecode": "0x60806040523480156200001157600080fd5b506040518060800160405280605a8152602001620039da605a91396200003d81620000aa60201b60201c565b506200005e62000052620000c660201b60201c565b620000ce60201b60201c565b620000a46040518060400160405280600981526020017f4465426179204e465400000000000000000000000000000000000000000000008152506200019460201b60201c565b62000401565b8060029080519060200190620000c292919062000269565b5050565b600033905090565b6000600360009054906101000a900473ffffffffffffffffffffffffffffffffffffffff16905081600360006101000a81548173ffffffffffffffffffffffffffffffffffffffff021916908373ffffffffffffffffffffffffffffffffffffffff1602179055508173ffffffffffffffffffffffffffffffffffffffff168173ffffffffffffffffffffffffffffffffffffffff167f8be0079c531659141344cd1fd0a4f28419497f9722a3daafe3b4186f6b6457e060405160405180910390a35050565b620001a4620000c660201b60201c565b73ffffffffffffffffffffffffffffffffffffffff16620001ca6200023f60201b60201c565b73ffffffffffffffffffffffffffffffffffffffff161462000223576040517f08c379a00000000000000000000000000000000000000000000000000000000081526004016200021a9062000340565b60405180910390fd5b80600490805190602001906200023b92919062000269565b5050565b6000600360009054906101000a900473ffffffffffffffffffffffffffffffffffffffff16905090565b828054620002779062000373565b90600052602060002090601f0160209004810192826200029b5760008555620002e7565b82601f10620002b657805160ff1916838001178555620002e7565b82800160010185558215620002e7579182015b82811115620002e6578251825591602001919060010190620002c9565b5b509050620002f69190620002fa565b5090565b5b8082111562000315576000816000905550600101620002fb565b5090565b60006200032860208362000362565b91506200033582620003d8565b602082019050919050565b600060208201905081810360008301526200035b8162000319565b9050919050565b600082825260208201905092915050565b600060028204905060018216806200038c57607f821691505b60208210811415620003a357620003a2620003a9565b5b50919050565b7f4e487b7100000000000000000000000000000000000000000000000000000000600052602260045260246000fd5b7f4f776e61626c653a2063616c6c6572206973206e6f7420746865206f776e6572600082015250565b6135c980620004116000396000f3fe608060405234801561001057600080fd5b50600436106101155760003560e01c80636b20c454116100a2578063c47f002711610071578063c47f0027146102dc578063e985e9c5146102f8578063f242432a14610328578063f2fde38b14610344578063f5298aca1461036057610115565b80636b20c4541461027c578063715018a6146102985780638da5cb5b146102a2578063a22cb465146102c057610115565b806308dc9f42116100e957806308dc9f42146101b45780630e89341c146101d05780632e686d69146102005780632eb2c2d6146102305780634e1273f41461024c57610115565b8062fdd58e1461011a57806301ffc9a71461014a57806302fe53051461017a57806306fdde0314610196575b600080fd5b610134600480360381019061012f91906121d1565b61037c565b6040516101419190612af3565b60405180910390f35b610164600480360381019061015f91906122c8565b610445565b60405161017191906128b6565b60405180910390f35b610194600480360381019061018f919061231a565b610527565b005b61019e6105af565b6040516101ab91906128d1565b60405180910390f35b6101ce60048036038101906101c99190612384565b61063d565b005b6101ea60048036038101906101e5919061235b565b6107eb565b6040516101f791906128d1565b60405180910390f35b61021a60048036038101906102159190611f5d565b61081c565b6040516102279190612af3565b60405180910390f35b61024a60048036038101906102459190611fc2565b610834565b005b6102666004803603810190610261919061225c565b61086f565b604051610273919061285d565b60405180910390f35b61029660048036038101906102919190612116565b610a20565b005b6102a0610abd565b005b6102aa610b45565b6040516102b791906127e8565b60405180910390f35b6102da60048036038101906102d59190612195565b610b6f565b005b6102f660048036038101906102f1919061231a565b610b85565b005b610312600480360381019061030d9190611f86565b610c1b565b60405161031f91906128b6565b60405180910390f35b610342600480360381019061033d9190612084565b610caf565b005b61035e60048036038101906103599190611f5d565b610cea565b005b61037a6004803603810190610375919061220d565b610de2565b005b60008073ffffffffffffffffffffffffffffffffffffffff168373ffffffffffffffffffffffffffffffffffffffff1614156103ed576040517f08c379a00000000000000000000000000000000000000000000000000000000081526004016103e490612953565b60405180910390fd5b60008083815260200190815260200160002060008473ffffffffffffffffffffffffffffffffffffffff1673ffffffffffffffffffffffffffffffffffffffff16815260200190815260200160002054905092915050565b60007fd9b67a26000000000000000000000000000000000000000000000000000000007bffffffffffffffffffffffffffffffffffffffffffffffffffffffff1916827bffffffffffffffffffffffffffffffffffffffffffffffffffffffff1916148061051057507f0e89341c000000000000000000000000000000000000000000000000000000007bffffffffffffffffffffffffffffffffffffffffffffffffffffffff1916827bffffffffffffffffffffffffffffffffffffffffffffffffffffffff1916145b80610520575061051f82610e7f565b5b9050919050565b61052f610ee9565b73ffffffffffffffffffffffffffffffffffffffff1661054d610b45565b73ffffffffffffffffffffffffffffffffffffffff16146105a3576040517f08c379a000000000000000000000000000000000000000000000000000000000815260040161059a90612a33565b60405180910390fd5b6105ac81610ef1565b50565b600480546105bc90612dd2565b80601f01602080910402602001604051908101604052809291908181526020018280546105e890612dd2565b80156106355780601f1061060a57610100808354040283529160200191610635565b820191906000526020600020905b81548152906001019060200180831161061857829003601f168201915b505050505081565b42610708600560003373ffffffffffffffffffffffffffffffffffffffff1673ffffffffffffffffffffffffffffffffffffffff1681526020019081526020016000205461068b9190612c61565b106106cb576040517f08c379a00000000000000000000000000000000000000000000000000000000081526004016106c290612933565b60405180910390fd5b6004841061070e576040517f08c379a0000000000000000000000000000000000000000000000000000000008152600401610705906129d3565b60405180910390fd5b60018314610751576040517f08c379a0000000000000000000000000000000000000000000000000000000008152600401610748906129f3565b60405180910390fd5b42600560003373ffffffffffffffffffffffffffffffffffffffff1673ffffffffffffffffffffffffffffffffffffffff168152602001908152602001600020819055506107e533858585858080601f016020809104026020016040519081016040528093929190818152602001838380828437600081840152601f19601f82011690508083019250505050505050610f0b565b50505050565b60606107f6826110a1565b60405160200161080691906127bb565b6040516020818303038152906040529050919050565b60056020528060005260406000206000915090505481565b6040517f08c379a000000000000000000000000000000000000000000000000000000000815260040161086690612a53565b60405180910390fd5b606081518351146108b5576040517f08c379a00000000000000000000000000000000000000000000000000000000081526004016108ac90612a93565b60405180910390fd5b6000835167ffffffffffffffff8111156108f8577f4e487b7100000000000000000000000000000000000000000000000000000000600052604160045260246000fd5b6040519080825280602002602001820160405280156109265781602001602082028036833780820191505090505b50905060005b8451811015610a15576109bf858281518110610971577f4e487b7100000000000000000000000000000000000000000000000000000000600052603260045260246000fd5b60200260200101518583815181106109b2577f4e487b7100000000000000000000000000000000000000000000000000000000600052603260045260246000fd5b602002602001015161037c565b8282815181106109f8577f4e487b7100000000000000000000000000000000000000000000000000000000600052603260045260246000fd5b60200260200101818152505080610a0e90612e35565b905061092c565b508091505092915050565b610a28610ee9565b73ffffffffffffffffffffffffffffffffffffffff168373ffffffffffffffffffffffffffffffffffffffff161480610a6e5750610a6d83610a68610ee9565b610c1b565b5b610aad576040517f08c379a0000000000000000000000000000000000000000000000000000000008152600401610aa4906129b3565b60405180910390fd5b610ab883838361124e565b505050565b610ac5610ee9565b73ffffffffffffffffffffffffffffffffffffffff16610ae3610b45565b73ffffffffffffffffffffffffffffffffffffffff1614610b39576040517f08c379a0000000000000000000000000000000000000000000000000000000008152600401610b3090612a33565b60405180910390fd5b610b43600061154b565b565b6000600360009054906101000a900473ffffffffffffffffffffffffffffffffffffffff16905090565b610b81610b7a610ee9565b8383611611565b5050565b610b8d610ee9565b73ffffffffffffffffffffffffffffffffffffffff16610bab610b45565b73ffffffffffffffffffffffffffffffffffffffff1614610c01576040517f08c379a0000000000000000000000000000000000000000000000000000000008152600401610bf890612a33565b60405180910390fd5b8060049080519060200190610c17929190611c73565b5050565b6000600160008473ffffffffffffffffffffffffffffffffffffffff1673ffffffffffffffffffffffffffffffffffffffff16815260200190815260200160002060008373ffffffffffffffffffffffffffffffffffffffff1673ffffffffffffffffffffffffffffffffffffffff16815260200190815260200160002060009054906101000a900460ff16905092915050565b6040517f08c379a0000000000000000000000000000000000000000000000000000000008152600401610ce190612a53565b60405180910390fd5b610cf2610ee9565b73ffffffffffffffffffffffffffffffffffffffff16610d10610b45565b73ffffffffffffffffffffffffffffffffffffffff1614610d66576040517f08c379a0000000000000000000000000000000000000000000000000000000008152600401610d5d90612a33565b60405180910390fd5b600073ffffffffffffffffffffffffffffffffffffffff168173ffffffffffffffffffffffffffffffffffffffff161415610dd6576040517f08c379a0000000000000000000000000000000000000000000000000000000008152600401610dcd90612973565b60405180910390fd5b610ddf8161154b565b50565b610dea610ee9565b73ffffffffffffffffffffffffffffffffffffffff168373ffffffffffffffffffffffffffffffffffffffff161480610e305750610e2f83610e2a610ee9565b610c1b565b5b610e6f576040517f08c379a0000000000000000000000000000000000000000000000000000000008152600401610e66906129b3565b60405180910390fd5b610e7a83838361177e565b505050565b60007f01ffc9a7000000000000000000000000000000000000000000000000000000007bffffffffffffffffffffffffffffffffffffffffffffffffffffffff1916827bffffffffffffffffffffffffffffffffffffffffffffffffffffffff1916149050919050565b600033905090565b8060029080519060200190610f07929190611c73565b5050565b600073ffffffffffffffffffffffffffffffffffffffff168473ffffffffffffffffffffffffffffffffffffffff161415610f7b576040517f08c379a0000000000000000000000000000000000000000000000000000000008152600401610f7290612ad3565b60405180910390fd5b6000610f85610ee9565b9050610fa681600087610f978861199b565b610fa08861199b565b87611a61565b8260008086815260200190815260200160002060008773ffffffffffffffffffffffffffffffffffffffff1673ffffffffffffffffffffffffffffffffffffffff16815260200190815260200160002060008282546110059190612c61565b925050819055508473ffffffffffffffffffffffffffffffffffffffff16600073ffffffffffffffffffffffffffffffffffffffff168273ffffffffffffffffffffffffffffffffffffffff167fc3d58168c5ae7397731d063d5bbf3d657854427343f4c083240f7aacaa2d0f628787604051611083929190612b0e565b60405180910390a461109a81600087878787611a69565b5050505050565b606060008214156110e9576040518060400160405280600181526020017f30000000000000000000000000000000000000000000000000000000000000008152509050611249565b600082905060005b6000821461111b57808061110490612e35565b915050600a826111149190612cb7565b91506110f1565b60008167ffffffffffffffff81111561115d577f4e487b7100000000000000000000000000000000000000000000000000000000600052604160045260246000fd5b6040519080825280601f01601f19166020018201604052801561118f5781602001600182028036833780820191505090505b5090505b60008514611242576001826111a89190612ce8565b9150600a856111b79190612e7e565b60306111c39190612c61565b60f81b8183815181106111ff577f4e487b7100000000000000000000000000000000000000000000000000000000600052603260045260246000fd5b60200101907effffffffffffffffffffffffffffffffffffffffffffffffffffffffffffff1916908160001a905350600a8561123b9190612cb7565b9450611193565b8093505050505b919050565b600073ffffffffffffffffffffffffffffffffffffffff168373ffffffffffffffffffffffffffffffffffffffff1614156112be576040517f08c379a00000000000000000000000000000000000000000000000000000000081526004016112b590612a13565b60405180910390fd5b8051825114611302576040517f08c379a00000000000000000000000000000000000000000000000000000000081526004016112f990612ab3565b60405180910390fd5b600061130c610ee9565b905061132c81856000868660405180602001604052806000815250611a61565b60005b83518110156114c5576000848281518110611373577f4e487b7100000000000000000000000000000000000000000000000000000000600052603260045260246000fd5b6020026020010151905060008483815181106113b8577f4e487b7100000000000000000000000000000000000000000000000000000000600052603260045260246000fd5b60200260200101519050600080600084815260200190815260200160002060008973ffffffffffffffffffffffffffffffffffffffff1673ffffffffffffffffffffffffffffffffffffffff16815260200190815260200160002054905081811015611459576040517f08c379a000000000000000000000000000000000000000000000000000000000815260040161145090612993565b60405180910390fd5b81810360008085815260200190815260200160002060008a73ffffffffffffffffffffffffffffffffffffffff1673ffffffffffffffffffffffffffffffffffffffff1681526020019081526020016000208190555050505080806114bd90612e35565b91505061132f565b50600073ffffffffffffffffffffffffffffffffffffffff168473ffffffffffffffffffffffffffffffffffffffff168273ffffffffffffffffffffffffffffffffffffffff167f4a39dc06d4c0dbc64b70af90fd698a233a518aa5d07e595d983b8c0526c8f7fb868660405161153d92919061287f565b60405180910390a450505050565b6000600360009054906101000a900473ffffffffffffffffffffffffffffffffffffffff16905081600360006101000a81548173ffffffffffffffffffffffffffffffffffffffff021916908373ffffffffffffffffffffffffffffffffffffffff1602179055508173ffffffffffffffffffffffffffffffffffffffff168173ffffffffffffffffffffffffffffffffffffffff167f8be0079c531659141344cd1fd0a4f28419497f9722a3daafe3b4186f6b6457e060405160405180910390a35050565b8173ffffffffffffffffffffffffffffffffffffffff168373ffffffffffffffffffffffffffffffffffffffff161415611680576040517f08c379a000000000000000000000000000000000000000000000000000000000815260040161167790612a73565b60405180910390fd5b80600160008573ffffffffffffffffffffffffffffffffffffffff1673ffffffffffffffffffffffffffffffffffffffff16815260200190815260200160002060008473ffffffffffffffffffffffffffffffffffffffff1673ffffffffffffffffffffffffffffffffffffffff16815260200190815260200160002060006101000a81548160ff0219169083151502179055508173ffffffffffffffffffffffffffffffffffffffff168373ffffffffffffffffffffffffffffffffffffffff167f17307eab39ab6107e8899845ad3d59bd9653f200f220920489ca2b5937696c318360405161177191906128b6565b60405180910390a3505050565b600073ffffffffffffffffffffffffffffffffffffffff168373ffffffffffffffffffffffffffffffffffffffff1614156117ee576040517f08c379a00000000000000000000000000000000000000000000000000000000081526004016117e590612a13565b60405180910390fd5b60006117f8610ee9565b90506118288185600061180a8761199b565b6118138761199b565b60405180602001604052806000815250611a61565b600080600085815260200190815260200160002060008673ffffffffffffffffffffffffffffffffffffffff1673ffffffffffffffffffffffffffffffffffffffff168152602001908152602001600020549050828110156118bf576040517f08c379a00000000000000000000000000000000000000000000000000000000081526004016118b690612993565b60405180910390fd5b82810360008086815260200190815260200160002060008773ffffffffffffffffffffffffffffffffffffffff1673ffffffffffffffffffffffffffffffffffffffff16815260200190815260200160002081905550600073ffffffffffffffffffffffffffffffffffffffff168573ffffffffffffffffffffffffffffffffffffffff168373ffffffffffffffffffffffffffffffffffffffff167fc3d58168c5ae7397731d063d5bbf3d657854427343f4c083240f7aacaa2d0f62878760405161198c929190612b0e565b60405180910390a45050505050565b60606000600167ffffffffffffffff8111156119e0577f4e487b7100000000000000000000000000000000000000000000000000000000600052604160045260246000fd5b604051908082528060200260200182016040528015611a0e5781602001602082028036833780820191505090505b5090508281600081518110611a4c577f4e487b7100000000000000000000000000000000000000000000000000000000600052603260045260246000fd5b60200260200101818152505080915050919050565b505050505050565b611a888473ffffffffffffffffffffffffffffffffffffffff16611c50565b15611c48578373ffffffffffffffffffffffffffffffffffffffff1663f23a6e6187878686866040518663ffffffff1660e01b8152600401611ace959493929190612803565b602060405180830381600087803b158015611ae857600080fd5b505af1925050508015611b1957506040513d601f19601f82011682018060405250810190611b1691906122f1565b60015b611bbf57611b25612f6b565b806308c379a01415611b825750611b3a6134a1565b80611b455750611b84565b806040517f08c379a0000000000000000000000000000000000000000000000000000000008152600401611b7991906128d1565b60405180910390fd5b505b6040517f08c379a0000000000000000000000000000000000000000000000000000000008152600401611bb6906128f3565b60405180910390fd5b63f23a6e6160e01b7bffffffffffffffffffffffffffffffffffffffffffffffffffffffff1916817bffffffffffffffffffffffffffffffffffffffffffffffffffffffff191614611c46576040517f08c379a0000000000000000000000000000000000000000000000000000000008152600401611c3d90612913565b60405180910390fd5b505b505050505050565b6000808273ffffffffffffffffffffffffffffffffffffffff163b119050919050565b828054611c7f90612dd2565b90600052602060002090601f016020900481019282611ca15760008555611ce8565b82601f10611cba57805160ff1916838001178555611ce8565b82800160010185558215611ce8579182015b82811115611ce7578251825591602001919060010190611ccc565b5b509050611cf59190611cf9565b5090565b5b80821115611d12576000816000905550600101611cfa565b5090565b6000611d29611d2484612b5c565b612b37565b90508083825260208201905082856020860282011115611d4857600080fd5b60005b85811015611d785781611d5e8882611e2c565b845260208401935060208301925050600181019050611d4b565b5050509392505050565b6000611d95611d9084612b88565b612b37565b90508083825260208201905082856020860282011115611db457600080fd5b60005b85811015611de45781611dca8882611f48565b845260208401935060208301925050600181019050611db7565b5050509392505050565b6000611e01611dfc84612bb4565b612b37565b905082815260208101848484011115611e1957600080fd5b611e24848285612d90565b509392505050565b600081359050611e3b81613537565b92915050565b600082601f830112611e5257600080fd5b8135611e62848260208601611d16565b91505092915050565b600082601f830112611e7c57600080fd5b8135611e8c848260208601611d82565b91505092915050565b600081359050611ea48161354e565b92915050565b600081359050611eb981613565565b92915050565b600081519050611ece81613565565b92915050565b60008083601f840112611ee657600080fd5b8235905067ffffffffffffffff811115611eff57600080fd5b602083019150836001820283011115611f1757600080fd5b9250929050565b600082601f830112611f2f57600080fd5b8135611f3f848260208601611dee565b91505092915050565b600081359050611f578161357c565b92915050565b600060208284031215611f6f57600080fd5b6000611f7d84828501611e2c565b91505092915050565b60008060408385031215611f9957600080fd5b6000611fa785828601611e2c565b9250506020611fb885828601611e2c565b9150509250929050565b60008060008060008060a08789031215611fdb57600080fd5b6000611fe989828a01611e2c565b9650506020611ffa89828a01611e2c565b955050604087013567ffffffffffffffff81111561201757600080fd5b61202389828a01611e6b565b945050606087013567ffffffffffffffff81111561204057600080fd5b61204c89828a01611e6b565b935050608087013567ffffffffffffffff81111561206957600080fd5b61207589828a01611ed4565b92509250509295509295509295565b60008060008060008060a0878903121561209d57600080fd5b60006120ab89828a01611e2c565b96505060206120bc89828a01611e2c565b95505060406120cd89828a01611f48565b94505060606120de89828a01611f48565b935050608087013567ffffffffffffffff8111156120fb57600080fd5b61210789828a01611ed4565b92509250509295509295509295565b60008060006060848603121561212b57600080fd5b600061213986828701611e2c565b935050602084013567ffffffffffffffff81111561215657600080fd5b61216286828701611e6b565b925050604084013567ffffffffffffffff81111561217f57600080fd5b61218b86828701611e6b565b9150509250925092565b600080604083850312156121a857600080fd5b60006121b685828601611e2c565b92505060206121c785828601611e95565b9150509250929050565b600080604083850312156121e457600080fd5b60006121f285828601611e2c565b925050602061220385828601611f48565b9150509250929050565b60008060006060848603121561222257600080fd5b600061223086828701611e2c565b935050602061224186828701611f48565b925050604061225286828701611f48565b9150509250925092565b6000806040838503121561226f57600080fd5b600083013567ffffffffffffffff81111561228957600080fd5b61229585828601611e41565b925050602083013567ffffffffffffffff8111156122b257600080fd5b6122be85828601611e6b565b9150509250929050565b6000602082840312156122da57600080fd5b60006122e884828501611eaa565b91505092915050565b60006020828403121561230357600080fd5b600061231184828501611ebf565b91505092915050565b60006020828403121561232c57600080fd5b600082013567ffffffffffffffff81111561234657600080fd5b61235284828501611f1e565b91505092915050565b60006020828403121561236d57600080fd5b600061237b84828501611f48565b91505092915050565b6000806000806060858703121561239a57600080fd5b60006123a887828801611f48565b94505060206123b987828801611f48565b935050604085013567ffffffffffffffff8111156123d657600080fd5b6123e287828801611ed4565b925092505092959194509250565b60006123fc838361279d565b60208301905092915050565b61241181612d1c565b82525050565b600061242282612bf5565b61242c8185612c23565b935061243783612be5565b8060005b8381101561246857815161244f88826123f0565b975061245a83612c16565b92505060018101905061243b565b5085935050505092915050565b61247e81612d2e565b82525050565b600061248f82612c00565b6124998185612c34565b93506124a9818560208601612d9f565b6124b281612f8d565b840191505092915050565b60006124c882612c0b565b6124d28185612c45565b93506124e2818560208601612d9f565b6124eb81612f8d565b840191505092915050565b600061250182612c0b565b61250b8185612c56565b935061251b818560208601612d9f565b80840191505092915050565b6000612534603483612c45565b915061253f82612fab565b604082019050919050565b6000612557602883612c45565b915061256282612ffa565b604082019050919050565b600061257a602b83612c45565b915061258582613049565b604082019050919050565b600061259d602b83612c45565b91506125a882613098565b604082019050919050565b60006125c0602683612c45565b91506125cb826130e7565b604082019050919050565b60006125e3602483612c45565b91506125ee82613136565b604082019050919050565b6000612606602983612c45565b915061261182613185565b604082019050919050565b6000612629600d83612c45565b9150612634826131d4565b602082019050919050565b600061264c601483612c45565b9150612657826131fd565b602082019050919050565b600061266f602383612c45565b915061267a82613226565b604082019050919050565b6000612692600583612c56565b915061269d82613275565b600582019050919050565b60006126b5602083612c45565b91506126c08261329e565b602082019050919050565b60006126d8601b83612c45565b91506126e3826132c7565b602082019050919050565b60006126fb605183612c56565b9150612706826132f0565b605182019050919050565b600061271e602983612c45565b915061272982613365565b604082019050919050565b6000612741602983612c45565b915061274c826133b4565b604082019050919050565b6000612764602883612c45565b915061276f82613403565b604082019050919050565b6000612787602183612c45565b915061279282613452565b604082019050919050565b6127a681612d86565b82525050565b6127b581612d86565b82525050565b60006127c6826126ee565b91506127d282846124f6565b91506127dd82612685565b915081905092915050565b60006020820190506127fd6000830184612408565b92915050565b600060a0820190506128186000830188612408565b6128256020830187612408565b61283260408301866127ac565b61283f60608301856127ac565b81810360808301526128518184612484565b90509695505050505050565b600060208201905081810360008301526128778184612417565b905092915050565b600060408201905081810360008301526128998185612417565b905081810360208301526128ad8184612417565b90509392505050565b60006020820190506128cb6000830184612475565b92915050565b600060208201905081810360008301526128eb81846124bd565b905092915050565b6000602082019050818103600083015261290c81612527565b9050919050565b6000602082019050818103600083015261292c8161254a565b9050919050565b6000602082019050818103600083015261294c8161256d565b9050919050565b6000602082019050818103600083015261296c81612590565b9050919050565b6000602082019050818103600083015261298c816125b3565b9050919050565b600060208201905081810360008301526129ac816125d6565b9050919050565b600060208201905081810360008301526129cc816125f9565b9050919050565b600060208201905081810360008301526129ec8161261c565b9050919050565b60006020820190508181036000830152612a0c8161263f565b9050919050565b60006020820190508181036000830152612a2c81612662565b9050919050565b60006020820190508181036000830152612a4c816126a8565b9050919050565b60006020820190508181036000830152612a6c816126cb565b9050919050565b60006020820190508181036000830152612a8c81612711565b9050919050565b60006020820190508181036000830152612aac81612734565b9050919050565b60006020820190508181036000830152612acc81612757565b9050919050565b60006020820190508181036000830152612aec8161277a565b9050919050565b6000602082019050612b0860008301846127ac565b92915050565b6000604082019050612b2360008301856127ac565b612b3060208301846127ac565b9392505050565b6000612b41612b52565b9050612b4d8282612e04565b919050565b6000604051905090565b600067ffffffffffffffff821115612b7757612b76612f3c565b5b602082029050602081019050919050565b600067ffffffffffffffff821115612ba357612ba2612f3c565b5b602082029050602081019050919050565b600067ffffffffffffffff821115612bcf57612bce612f3c565b5b612bd882612f8d565b9050602081019050919050565b6000819050602082019050919050565b600081519050919050565b600081519050919050565b600081519050919050565b6000602082019050919050565b600082825260208201905092915050565b600082825260208201905092915050565b600082825260208201905092915050565b600081905092915050565b6000612c6c82612d86565b9150612c7783612d86565b9250827fffffffffffffffffffffffffffffffffffffffffffffffffffffffffffffffff03821115612cac57612cab612eaf565b5b828201905092915050565b6000612cc282612d86565b9150612ccd83612d86565b925082612cdd57612cdc612ede565b5b828204905092915050565b6000612cf382612d86565b9150612cfe83612d86565b925082821015612d1157612d10612eaf565b5b828203905092915050565b6000612d2782612d66565b9050919050565b60008115159050919050565b60007fffffffff0000000000000000000000000000000000000000000000000000000082169050919050565b600073ffffffffffffffffffffffffffffffffffffffff82169050919050565b6000819050919050565b82818337600083830152505050565b60005b83811015612dbd578082015181840152602081019050612da2565b83811115612dcc576000848401525b50505050565b60006002820490506001821680612dea57607f821691505b60208210811415612dfe57612dfd612f0d565b5b50919050565b612e0d82612f8d565b810181811067ffffffffffffffff82111715612e2c57612e2b612f3c565b5b80604052505050565b6000612e4082612d86565b91507fffffffffffffffffffffffffffffffffffffffffffffffffffffffffffffffff821415612e7357612e72612eaf565b5b600182019050919050565b6000612e8982612d86565b9150612e9483612d86565b925082612ea457612ea3612ede565b5b828206905092915050565b7f4e487b7100000000000000000000000000000000000000000000000000000000600052601160045260246000fd5b7f4e487b7100000000000000000000000000000000000000000000000000000000600052601260045260246000fd5b7f4e487b7100000000000000000000000000000000000000000000000000000000600052602260045260246000fd5b7f4e487b7100000000000000000000000000000000000000000000000000000000600052604160045260246000fd5b600060033d1115612f8a5760046000803e612f87600051612f9e565b90505b90565b6000601f19601f8301169050919050565b60008160e01c9050919050565b7f455243313135353a207472616e7366657220746f206e6f6e204552433131353560008201527f526563656976657220696d706c656d656e746572000000000000000000000000602082015250565b7f455243313135353a204552433131353552656365697665722072656a6563746560008201527f6420746f6b656e73000000000000000000000000000000000000000000000000602082015250565b7f4d75737420776169742033306d696e73206265666f7265206d696e74696e672060008201527f616e6f74686572206e6674000000000000000000000000000000000000000000602082015250565b7f455243313135353a2062616c616e636520717565727920666f7220746865207a60008201527f65726f2061646472657373000000000000000000000000000000000000000000602082015250565b7f4f776e61626c653a206e6577206f776e657220697320746865207a65726f206160008201527f6464726573730000000000000000000000000000000000000000000000000000602082015250565b7f455243313135353a206275726e20616d6f756e7420657863656564732062616c60008201527f616e636500000000000000000000000000000000000000000000000000000000602082015250565b7f455243313135353a2063616c6c6572206973206e6f74206f776e6572206e6f7260008201527f20617070726f7665640000000000000000000000000000000000000000000000602082015250565b7f496420697320696e76616c696400000000000000000000000000000000000000600082015250565b7f496e76616c696420616d6f756e7420696e707574000000000000000000000000600082015250565b7f455243313135353a206275726e2066726f6d20746865207a65726f206164647260008201527f6573730000000000000000000000000000000000000000000000000000000000602082015250565b7f2e6a736f6e000000000000000000000000000000000000000000000000000000600082015250565b7f4f776e61626c653a2063616c6c6572206973206e6f7420746865206f776e6572600082015250565b7f44654261793a2043616e6e6f74207472616e73666572204e6674730000000000600082015250565b7f68747470733a2f2f697066732e696f2f697066732f626166796265696861743560008201527f716275346434613379366a63786d733535346b7332736b79706a796f7169686860208201527f73647a793773636e7465716d7a7433692f000000000000000000000000000000604082015250565b7f455243313135353a2073657474696e6720617070726f76616c2073746174757360008201527f20666f722073656c660000000000000000000000000000000000000000000000602082015250565b7f455243313135353a206163636f756e747320616e6420696473206c656e67746860008201527f206d69736d617463680000000000000000000000000000000000000000000000602082015250565b7f455243313135353a2069647320616e6420616d6f756e7473206c656e6774682060008201527f6d69736d61746368000000000000000000000000000000000000000000000000602082015250565b7f455243313135353a206d696e7420746f20746865207a65726f2061646472657360008201527f7300000000000000000000000000000000000000000000000000000000000000602082015250565b600060443d10156134b157613534565b6134b9612b52565b60043d036004823e80513d602482011167ffffffffffffffff821117156134e1575050613534565b808201805167ffffffffffffffff8111156134ff5750505050613534565b80602083010160043d03850181111561351c575050505050613534565b61352b82602001850186612e04565b82955050505050505b90565b61354081612d1c565b811461354b57600080fd5b50565b61355781612d2e565b811461356257600080fd5b50565b61356e81612d3a565b811461357957600080fd5b50565b61358581612d86565b811461359057600080fd5b5056fea2646970667358221220bbd7fb2f066a3b21630c16bb44807da75d917f291e13ba9111e7da332f9d15e264736f6c6343000804003368747470733a2f2f697066732e696f2f697066732f6261667962656968617435716275346434613379366a63786d733535346b7332736b79706a796f7169686873647a793773636e7465716d7a7433692f7b69647d2e6a736f6e",
  "linkReferences": {},
  "deployedLinkReferences": {}
}